{
  "contractName": "Greenance",
  "abi": [
    {
      "constant": true,
      "inputs": [
        {
          "internalType": "uint256",
          "name": "",
          "type": "uint256"
        }
      ],
      "name": "userAccts",
      "outputs": [
        {
          "internalType": "address",
          "name": "",
          "type": "address"
        }
      ],
      "payable": false,
      "stateMutability": "view",
      "type": "function"
    },
    {
      "constant": false,
      "inputs": [
        {
          "internalType": "address",
          "name": "_wallet",
          "type": "address"
        },
        {
          "internalType": "uint256",
          "name": "_value",
          "type": "uint256"
        }
      ],
      "name": "withDraw",
      "outputs": [],
      "payable": false,
      "stateMutability": "nonpayable",
      "type": "function"
    },
    {
      "constant": false,
      "inputs": [
        {
          "internalType": "address",
          "name": "_wallet",
          "type": "address"
        },
        {
          "internalType": "uint256",
          "name": "_value",
          "type": "uint256"
        }
      ],
      "name": "payBack",
      "outputs": [],
      "payable": false,
      "stateMutability": "nonpayable",
      "type": "function"
    },
    {
      "constant": false,
      "inputs": [
        {
          "internalType": "address",
          "name": "_wallet",
          "type": "address"
        },
        {
          "internalType": "uint256",
          "name": "_value1",
          "type": "uint256"
        },
        {
          "internalType": "uint256",
          "name": "_value2",
          "type": "uint256"
        },
        {
          "internalType": "uint256",
          "name": "_value3",
          "type": "uint256"
        }
      ],
      "name": "setUser",
      "outputs": [],
      "payable": false,
      "stateMutability": "nonpayable",
      "type": "function"
    },
    {
      "constant": false,
      "inputs": [
        {
          "internalType": "address",
          "name": "_wallet",
          "type": "address"
        },
        {
          "internalType": "uint256",
          "name": "_value",
          "type": "uint256"
        }
      ],
      "name": "changeStatus",
      "outputs": [],
      "payable": false,
      "stateMutability": "nonpayable",
      "type": "function"
    },
    {
      "constant": false,
      "inputs": [
        {
          "internalType": "address",
          "name": "_wallet",
          "type": "address"
        }
      ],
      "name": "rejectStatus",
      "outputs": [],
      "payable": false,
      "stateMutability": "nonpayable",
      "type": "function"
    },
    {
      "constant": false,
      "inputs": [
        {
          "internalType": "address",
          "name": "_wallet",
          "type": "address"
        },
        {
          "internalType": "uint256",
          "name": "_value",
          "type": "uint256"
        }
      ],
      "name": "sendToken",
      "outputs": [],
      "payable": false,
      "stateMutability": "nonpayable",
      "type": "function"
    },
    {
      "constant": false,
      "inputs": [
        {
          "internalType": "address",
          "name": "_wallet",
          "type": "address"
        }
      ],
      "name": "closeContract",
      "outputs": [],
      "payable": false,
      "stateMutability": "nonpayable",
      "type": "function"
    },
    {
      "constant": false,
      "inputs": [
        {
          "internalType": "address",
          "name": "_wallet",
          "type": "address"
        },
        {
          "internalType": "uint256",
          "name": "_value",
          "type": "uint256"
        }
      ],
      "name": "setBalAmount",
      "outputs": [],
      "payable": false,
      "stateMutability": "nonpayable",
      "type": "function"
    },
    {
      "constant": false,
      "inputs": [
        {
          "internalType": "address",
          "name": "_wallet",
          "type": "address"
        },
        {
          "internalType": "uint256",
          "name": "_value",
          "type": "uint256"
        }
      ],
      "name": "setBalWithdraw",
      "outputs": [],
      "payable": false,
      "stateMutability": "nonpayable",
      "type": "function"
    },
    {
      "constant": false,
      "inputs": [
        {
          "internalType": "address",
          "name": "_wallet",
          "type": "address"
        },
        {
          "internalType": "uint256",
          "name": "_value",
          "type": "uint256"
        }
      ],
      "name": "setBalof",
      "outputs": [],
      "payable": false,
      "stateMutability": "nonpayable",
      "type": "function"
    },
    {
      "constant": true,
      "inputs": [],
      "name": "getBalanceof",
      "outputs": [
        {
          "internalType": "uint256",
          "name": "",
          "type": "uint256"
        }
      ],
      "payable": false,
      "stateMutability": "view",
      "type": "function"
    },
    {
      "constant": true,
      "inputs": [],
      "name": "getAmount",
      "outputs": [
        {
          "internalType": "uint256",
          "name": "",
          "type": "uint256"
        }
      ],
      "payable": false,
      "stateMutability": "view",
      "type": "function"
    },
    {
      "constant": true,
      "inputs": [],
      "name": "getWithdraw",
      "outputs": [
        {
          "internalType": "uint256",
          "name": "",
          "type": "uint256"
        }
      ],
      "payable": false,
      "stateMutability": "view",
      "type": "function"
    },
    {
      "constant": true,
      "inputs": [],
      "name": "getstatus",
      "outputs": [
        {
          "internalType": "uint256",
          "name": "",
          "type": "uint256"
        }
      ],
      "payable": false,
      "stateMutability": "view",
      "type": "function"
    }
  ],
  "bytecode": "0x608060405234801561001057600080fd5b50610cd9806100206000396000f3fe608060405234801561001057600080fd5b50600436106100f55760003560e01c806373577c1711610097578063b701974411610066578063b701974414610444578063c794239c14610492578063d321fe29146104b0578063fffd9778146104ce576100f5565b806373577c17146103205780639116345614610364578063b1ec5cc6146103a8578063b3fd78a5146103f6576100f5565b80633b0b0290116100d35780633b0b029014610204578063412664ae146102225780635648329f1461027057806365f236a6146102d2576100f5565b80630ab2bb13146100fa578063191e2e83146101685780631b6476d5146101b6575b600080fd5b6101266004803603602081101561011057600080fd5b81019080803590602001909291905050506104ec565b604051808273ffffffffffffffffffffffffffffffffffffffff1673ffffffffffffffffffffffffffffffffffffffff16815260200191505060405180910390f35b6101b46004803603604081101561017e57600080fd5b81019080803573ffffffffffffffffffffffffffffffffffffffff16906020019092919080359060200190929190505050610528565b005b610202600480360360408110156101cc57600080fd5b81019080803573ffffffffffffffffffffffffffffffffffffffff16906020019092919080359060200190929190505050610619565b005b61020c610663565b6040518082815260200191505060405180910390f35b61026e6004803603604081101561023857600080fd5b81019080803573ffffffffffffffffffffffffffffffffffffffff169060200190929190803590602001909291905050506106b1565b005b6102d06004803603608081101561028657600080fd5b81019080803573ffffffffffffffffffffffffffffffffffffffff169060200190929190803590602001909291908035906020019092919080359060200190929190505050610742565b005b61031e600480360360408110156102e857600080fd5b81019080803573ffffffffffffffffffffffffffffffffffffffff169060200190929190803590602001909291905050506108c9565b005b6103626004803603602081101561033657600080fd5b81019080803573ffffffffffffffffffffffffffffffffffffffff169060200190929190505050610913565b005b6103a66004803603602081101561037a57600080fd5b81019080803573ffffffffffffffffffffffffffffffffffffffff1690602001909291905050506109eb565b005b6103f4600480360360408110156103be57600080fd5b81019080803573ffffffffffffffffffffffffffffffffffffffff16906020019092919080359060200190929190505050610a35565b005b6104426004803603604081101561040c57600080fd5b81019080803573ffffffffffffffffffffffffffffffffffffffff16906020019092919080359060200190929190505050610a7f565b005b6104906004803603604081101561045a57600080fd5b81019080803573ffffffffffffffffffffffffffffffffffffffff16906020019092919080359060200190929190505050610ac9565b005b61049a610bba565b6040518082815260200191505060405180910390f35b6104b8610c08565b6040518082815260200191505060405180910390f35b6104d6610c56565b6040518082815260200191505060405180910390f35b600181815481106104f957fe5b906000526020600020016000915054906101000a900473ffffffffffffffffffffffffffffffffffffffff1681565b806000808473ffffffffffffffffffffffffffffffffffffffff1673ffffffffffffffffffffffffffffffffffffffff16815260200190815260200160002060010160008282540392505081905550806000808473ffffffffffffffffffffffffffffffffffffffff1673ffffffffffffffffffffffffffffffffffffffff16815260200190815260200160002060020160008282540192505081905550806000808473ffffffffffffffffffffffffffffffffffffffff1673ffffffffffffffffffffffffffffffffffffffff168152602001908152602001600020600001600082825401925050819055505050565b806000808473ffffffffffffffffffffffffffffffffffffffff1673ffffffffffffffffffffffffffffffffffffffff168152602001908152602001600020600001819055505050565b6000806000803373ffffffffffffffffffffffffffffffffffffffff1673ffffffffffffffffffffffffffffffffffffffff1681526020019081526020016000206003015490508091505090565b60036000808473ffffffffffffffffffffffffffffffffffffffff1673ffffffffffffffffffffffffffffffffffffffff16815260200190815260200160002060030181905550806000808473ffffffffffffffffffffffffffffffffffffffff1673ffffffffffffffffffffffffffffffffffffffff168152602001908152602001600020600101819055505050565b826000808673ffffffffffffffffffffffffffffffffffffffff1673ffffffffffffffffffffffffffffffffffffffff16815260200190815260200160002060010181905550816000808673ffffffffffffffffffffffffffffffffffffffff1673ffffffffffffffffffffffffffffffffffffffff1681526020019081526020016000206002018190555060008060008673ffffffffffffffffffffffffffffffffffffffff1673ffffffffffffffffffffffffffffffffffffffff16815260200190815260200160002060030181905550806000808673ffffffffffffffffffffffffffffffffffffffff1673ffffffffffffffffffffffffffffffffffffffff168152602001908152602001600020600001819055506001808590806001815401808255809150509060018203906000526020600020016000909192909190916101000a81548173ffffffffffffffffffffffffffffffffffffffff021916908373ffffffffffffffffffffffffffffffffffffffff160217905550505050505050565b806000808473ffffffffffffffffffffffffffffffffffffffff1673ffffffffffffffffffffffffffffffffffffffff168152602001908152602001600020600201819055505050565b60008060008373ffffffffffffffffffffffffffffffffffffffff1673ffffffffffffffffffffffffffffffffffffffff1681526020019081526020016000206001018190555060008060008373ffffffffffffffffffffffffffffffffffffffff1673ffffffffffffffffffffffffffffffffffffffff1681526020019081526020016000206002018190555060046000808373ffffffffffffffffffffffffffffffffffffffff1673ffffffffffffffffffffffffffffffffffffffff1681526020019081526020016000206003018190555050565b60008060008373ffffffffffffffffffffffffffffffffffffffff1673ffffffffffffffffffffffffffffffffffffffff1681526020019081526020016000206003018190555050565b806000808473ffffffffffffffffffffffffffffffffffffffff1673ffffffffffffffffffffffffffffffffffffffff168152602001908152602001600020600301819055505050565b806000808473ffffffffffffffffffffffffffffffffffffffff1673ffffffffffffffffffffffffffffffffffffffff168152602001908152602001600020600101819055505050565b806000808473ffffffffffffffffffffffffffffffffffffffff1673ffffffffffffffffffffffffffffffffffffffff16815260200190815260200160002060010160008282540192505081905550806000808473ffffffffffffffffffffffffffffffffffffffff1673ffffffffffffffffffffffffffffffffffffffff16815260200190815260200160002060020160008282540392505081905550806000808473ffffffffffffffffffffffffffffffffffffffff1673ffffffffffffffffffffffffffffffffffffffff168152602001908152602001600020600001600082825403925050819055505050565b6000806000803373ffffffffffffffffffffffffffffffffffffffff1673ffffffffffffffffffffffffffffffffffffffff1681526020019081526020016000206002015490508091505090565b6000806000803373ffffffffffffffffffffffffffffffffffffffff1673ffffffffffffffffffffffffffffffffffffffff1681526020019081526020016000206001015490508091505090565b6000806000803373ffffffffffffffffffffffffffffffffffffffff1673ffffffffffffffffffffffffffffffffffffffff168152602001908152602001600020600001549050809150509056fea265627a7a72315820c23b87e9c5b5a9b89fe40fab7c0e80307c7a9bd29c12437799108537d328b95f64736f6c63430005100032",
  "source": "pragma solidity ^0.5.0;\r\n\r\ncontract Greenance{\r\n\r\n    struct balance {\r\n        uint wallet;                    \r\n        uint amount;                    \r\n        uint withdraw;\r\n        uint status;         //  รอเอกสาร = 0 , รอการตรวจสอบ = 1 , ตรวจสอบผ่านแล้ว = 2 , โอนเหรียญให้แล้ว = 3 , ยุติสัญญาแล้ว = 4             \r\n    }\r\n    mapping (address => balance) balanceMap;\r\n    address[] public userAccts;\r\n\r\n\r\n\r\n    function withDraw(address _wallet,uint _value) public {\r\n        balanceMap[_wallet].amount -= _value;\r\n        balanceMap[_wallet].withdraw += _value;\r\n        balanceMap[_wallet].wallet += _value ;            \r\n    }\r\n\r\n    function payBack(address _wallet,uint _value) public {\r\n        balanceMap[_wallet].amount += _value;\r\n        balanceMap[_wallet].withdraw -= _value;\r\n        balanceMap[_wallet].wallet -= _value;\r\n    }\r\n\r\n    \r\n\r\n    //----------Admin-function----------------------------------\r\n\r\n    function setUser(address _wallet,uint _value1,uint _value2,uint _value3) public {\r\n        balanceMap[_wallet].amount = _value1;\r\n        balanceMap[_wallet].withdraw = _value2;\r\n        balanceMap[_wallet].status = 0;\r\n        balanceMap[_wallet].wallet = _value3;\r\n        userAccts.push(_wallet) -1;\r\n    }\r\n\r\n    function changeStatus(address _wallet,uint _value) public {\r\n        balanceMap[_wallet].status = _value;\r\n    }\r\n\r\n    function rejectStatus(address _wallet) public {\r\n        balanceMap[_wallet].status = 0;\r\n    }\r\n\r\n    function sendToken(address _wallet,uint _value) public {\r\n        balanceMap[_wallet].status = 3;\r\n        balanceMap[_wallet].amount = _value;\r\n    }\r\n\r\n    function closeContract(address _wallet) public {\r\n        balanceMap[_wallet].amount = 0;\r\n        balanceMap[_wallet].withdraw = 0;\r\n        balanceMap[_wallet].status = 4;\r\n    }\r\n\r\n    //----------God-function----------------------------------\r\n\r\n    function setBalAmount(address _wallet,uint _value) public {\r\n        balanceMap[_wallet].amount = _value;\r\n    }\r\n\r\n    function setBalWithdraw(address _wallet,uint _value) public {\r\n        balanceMap[_wallet].withdraw = _value;\r\n    }\r\n\r\n    function setBalof(address _wallet,uint _value) public {\r\n        balanceMap[_wallet].wallet = _value;\r\n    }\r\n    \r\n    //----------Get-function----------------------------------\r\n\r\n    function getBalanceof() public view returns (uint){            \r\n        uint amount = balanceMap[msg.sender].wallet;\r\n        return (amount);                                                              \r\n    }\r\n\r\n    function getAmount() public view returns (uint){            \r\n        uint amount = balanceMap[msg.sender].amount;\r\n        return (amount);                                                              \r\n    }\r\n\r\n    function getWithdraw() public view returns (uint){            \r\n        uint withdraw = balanceMap[msg.sender].withdraw;\r\n        return (withdraw);                                                              \r\n    }\r\n\r\n    function getstatus() public view returns (uint){            \r\n        uint status = balanceMap[msg.sender].status;\r\n        return (status);                                                              \r\n    }\r\n    \r\n    \r\n}",
  "sourcePath": "C:/Users/chira/Downloads/IS_PS_FINAL/IS_Lottowin_v2/contracts/Greenance.sol",
  "compiler": {
    "name": "solc",
    "version": "0.5.16+commit.9c3226ce.Emscripten.clang"
  },
  "schemaVersion": "3.4.1",
  "updatedAt": "2021-07-22T08:45:51.892Z",
  "networkType": "ethereum",
  "devdoc": {
    "methods": {}
  },
  "userdoc": {
    "methods": {}
  }
}