{
  "contractName": "Shop",
  "abi": [
    {
      "inputs": [
        {
          "internalType": "address",
          "name": "_tokenAddress",
          "type": "address"
        }
      ],
      "payable": false,
      "stateMutability": "nonpayable",
      "type": "constructor"
    },
    {
      "constant": false,
      "inputs": [
        {
          "internalType": "address",
          "name": "_wallet",
          "type": "address"
        },
        {
          "internalType": "string",
          "name": "_fullname",
          "type": "string"
        },
        {
          "internalType": "string",
          "name": "_tel",
          "type": "string"
        },
        {
          "internalType": "string",
          "name": "_location",
          "type": "string"
        }
      ],
      "name": "buyDurian",
      "outputs": [],
      "payable": false,
      "stateMutability": "nonpayable",
      "type": "function"
    },
    {
      "constant": false,
      "inputs": [
        {
          "internalType": "address",
          "name": "_wallet",
          "type": "address"
        },
        {
          "internalType": "string",
          "name": "_fullname",
          "type": "string"
        },
        {
          "internalType": "string",
          "name": "_tel",
          "type": "string"
        },
        {
          "internalType": "string",
          "name": "_location",
          "type": "string"
        }
      ],
      "name": "buyCoconut",
      "outputs": [],
      "payable": false,
      "stateMutability": "nonpayable",
      "type": "function"
    },
    {
      "constant": false,
      "inputs": [
        {
          "internalType": "address",
          "name": "_wallet",
          "type": "address"
        },
        {
          "internalType": "string",
          "name": "_fullname",
          "type": "string"
        },
        {
          "internalType": "string",
          "name": "_tel",
          "type": "string"
        },
        {
          "internalType": "string",
          "name": "_location",
          "type": "string"
        }
      ],
      "name": "buypomelo",
      "outputs": [],
      "payable": false,
      "stateMutability": "nonpayable",
      "type": "function"
    },
    {
      "constant": true,
      "inputs": [],
      "name": "getdurianstock",
      "outputs": [
        {
          "internalType": "uint256",
          "name": "",
          "type": "uint256"
        }
      ],
      "payable": false,
      "stateMutability": "view",
      "type": "function"
    },
    {
      "constant": true,
      "inputs": [],
      "name": "getcoconutstock",
      "outputs": [
        {
          "internalType": "uint256",
          "name": "",
          "type": "uint256"
        }
      ],
      "payable": false,
      "stateMutability": "view",
      "type": "function"
    },
    {
      "constant": true,
      "inputs": [],
      "name": "getpomelostock",
      "outputs": [
        {
          "internalType": "uint256",
          "name": "",
          "type": "uint256"
        }
      ],
      "payable": false,
      "stateMutability": "view",
      "type": "function"
    },
    {
      "constant": false,
      "inputs": [
        {
          "internalType": "uint256",
          "name": "newdstock",
          "type": "uint256"
        }
      ],
      "name": "adddurianstock",
      "outputs": [],
      "payable": false,
      "stateMutability": "nonpayable",
      "type": "function"
    },
    {
      "constant": false,
      "inputs": [
        {
          "internalType": "uint256",
          "name": "newdstock",
          "type": "uint256"
        }
      ],
      "name": "addcoconutstock",
      "outputs": [],
      "payable": false,
      "stateMutability": "nonpayable",
      "type": "function"
    },
    {
      "constant": false,
      "inputs": [
        {
          "internalType": "uint256",
          "name": "newdstock",
          "type": "uint256"
        }
      ],
      "name": "addpomelostock",
      "outputs": [],
      "payable": false,
      "stateMutability": "nonpayable",
      "type": "function"
    },
    {
      "constant": true,
      "inputs": [],
      "name": "getAddress",
      "outputs": [
        {
          "internalType": "address",
          "name": "",
          "type": "address"
        }
      ],
      "payable": false,
      "stateMutability": "view",
      "type": "function"
    }
  ],
  "bytecode": "0x60806040526040518060600160405280606461ffff16815260200160c861ffff16815260200161012c61ffff16815250600190600361003f92919061011e565b5073a832d93032afd5afc25638767c636cb35b3fbc9d600260006101000a81548173ffffffffffffffffffffffffffffffffffffffff021916908373ffffffffffffffffffffffffffffffffffffffff1602179055503480156100a157600080fd5b50604051620013c1380380620013c1833981810160405260208110156100c657600080fd5b810190808051906020019092919050505080600360006101000a81548173ffffffffffffffffffffffffffffffffffffffff021916908373ffffffffffffffffffffffffffffffffffffffff16021790555050610196565b828054828255906000526020600020908101928215610160579160200282015b8281111561015f578251829061ffff1690559160200191906001019061013e565b5b50905061016d9190610171565b5090565b61019391905b8082111561018f576000816000905550600101610177565b5090565b90565b61121b80620001a66000396000f3fe608060405234801561001057600080fd5b506004361061009e5760003560e01c80637ccd5d6c116100665780637ccd5d6c14610370578063850581b81461038e5780638f84da73146103ac578063c4ca2196146105b5578063f77e6657146107be5761009e565b806319824940146100a35780631d8ad94b146100c157806321a78127146100ef57806338cc4831146102f857806373bf5e8b14610342575b600080fd5b6100ab6107ec565b6040518082815260200191505060405180910390f35b6100ed600480360360208110156100d757600080fd5b8101908080359060200190929190505050610810565b005b6102f66004803603608081101561010557600080fd5b81019080803573ffffffffffffffffffffffffffffffffffffffff1690602001909291908035906020019064010000000081111561014257600080fd5b82018360208201111561015457600080fd5b8035906020019184600183028401116401000000008311171561017657600080fd5b91908080601f016020809104026020016040519081016040528093929190818152602001838380828437600081840152601f19601f820116905080830192505050505050509192919290803590602001906401000000008111156101d957600080fd5b8201836020820111156101eb57600080fd5b8035906020019184600183028401116401000000008311171561020d57600080fd5b91908080601f016020809104026020016040519081016040528093929190818152602001838380828437600081840152601f19601f8201169050808301925050505050505091929192908035906020019064010000000081111561027057600080fd5b82018360208201111561028257600080fd5b803590602001918460018302840111640100000000831117156102a457600080fd5b91908080601f016020809104026020016040519081016040528093929190818152602001838380828437600081840152601f19601f82011690508083019250505050505050919291929050505061084a565b005b610300610b04565b604051808273ffffffffffffffffffffffffffffffffffffffff1673ffffffffffffffffffffffffffffffffffffffff16815260200191505060405180910390f35b61036e6004803603602081101561035857600080fd5b8101908080359060200190929190505050610b11565b005b610378610b4b565b6040518082815260200191505060405180910390f35b610396610b70565b6040518082815260200191505060405180910390f35b6105b3600480360360808110156103c257600080fd5b81019080803573ffffffffffffffffffffffffffffffffffffffff169060200190929190803590602001906401000000008111156103ff57600080fd5b82018360208201111561041157600080fd5b8035906020019184600183028401116401000000008311171561043357600080fd5b91908080601f016020809104026020016040519081016040528093929190818152602001838380828437600081840152601f19601f8201169050808301925050505050505091929192908035906020019064010000000081111561049657600080fd5b8201836020820111156104a857600080fd5b803590602001918460018302840111640100000000831117156104ca57600080fd5b91908080601f016020809104026020016040519081016040528093929190818152602001838380828437600081840152601f19601f8201169050808301925050505050505091929192908035906020019064010000000081111561052d57600080fd5b82018360208201111561053f57600080fd5b8035906020019184600183028401116401000000008311171561056157600080fd5b91908080601f016020809104026020016040519081016040528093929190818152602001838380828437600081840152601f19601f820116905080830192505050505050509192919290505050610b95565b005b6107bc600480360360808110156105cb57600080fd5b81019080803573ffffffffffffffffffffffffffffffffffffffff1690602001909291908035906020019064010000000081111561060857600080fd5b82018360208201111561061a57600080fd5b8035906020019184600183028401116401000000008311171561063c57600080fd5b91908080601f016020809104026020016040519081016040528093929190818152602001838380828437600081840152601f19601f8201169050808301925050505050505091929192908035906020019064010000000081111561069f57600080fd5b8201836020820111156106b157600080fd5b803590602001918460018302840111640100000000831117156106d357600080fd5b91908080601f016020809104026020016040519081016040528093929190818152602001838380828437600081840152601f19601f8201169050808301925050505050505091929192908035906020019064010000000081111561073657600080fd5b82018360208201111561074857600080fd5b8035906020019184600183028401116401000000008311171561076a57600080fd5b91908080601f016020809104026020016040519081016040528093929190818152602001838380828437600081840152601f19601f820116905080830192505050505050509192919290505050610e4f565b005b6107ea600480360360208110156107d457600080fd5b8101908080359060200190929190505050611109565b005b600080600180815481106107fc57fe5b906000526020600020015490508091505090565b80600160028154811061081f57fe5b906000526020600020015401600160028154811061083957fe5b906000526020600020018190555050565b600360009054906101000a900473ffffffffffffffffffffffffffffffffffffffff1673ffffffffffffffffffffffffffffffffffffffff1663beabacc885600260009054906101000a900473ffffffffffffffffffffffffffffffffffffffff1660026040518463ffffffff1660e01b8152600401808473ffffffffffffffffffffffffffffffffffffffff1673ffffffffffffffffffffffffffffffffffffffff1681526020018373ffffffffffffffffffffffffffffffffffffffff1673ffffffffffffffffffffffffffffffffffffffff1681526020018281526020019350505050602060405180830381600087803b15801561094a57600080fd5b505af115801561095e573d6000803e3d6000fd5b505050506040513d602081101561097457600080fd5b810190808051906020019092919050505050826000808673ffffffffffffffffffffffffffffffffffffffff1673ffffffffffffffffffffffffffffffffffffffff16815260200190815260200160002060000190805190602001906109db929190611141565b50816000808673ffffffffffffffffffffffffffffffffffffffff1673ffffffffffffffffffffffffffffffffffffffff1681526020019081526020016000206001019080519060200190610a31929190611141565b50806000808673ffffffffffffffffffffffffffffffffffffffff1673ffffffffffffffffffffffffffffffffffffffff1681526020019081526020016000206002019080519060200190610a87929190611141565b5060016000808673ffffffffffffffffffffffffffffffffffffffff1673ffffffffffffffffffffffffffffffffffffffff16815260200190815260200160002060050160008282540192505081905550600180600281548110610ae757fe5b906000526020600020016000828254039250508190555050505050565b6000803390508091505090565b806001600081548110610b2057fe5b9060005260206000200154016001600081548110610b3a57fe5b906000526020600020018190555050565b6000806001600281548110610b5c57fe5b906000526020600020015490508091505090565b6000806001600081548110610b8157fe5b906000526020600020015490508091505090565b600360009054906101000a900473ffffffffffffffffffffffffffffffffffffffff1673ffffffffffffffffffffffffffffffffffffffff1663beabacc885600260009054906101000a900473ffffffffffffffffffffffffffffffffffffffff1660026040518463ffffffff1660e01b8152600401808473ffffffffffffffffffffffffffffffffffffffff1673ffffffffffffffffffffffffffffffffffffffff1681526020018373ffffffffffffffffffffffffffffffffffffffff1673ffffffffffffffffffffffffffffffffffffffff1681526020018281526020019350505050602060405180830381600087803b158015610c9557600080fd5b505af1158015610ca9573d6000803e3d6000fd5b505050506040513d6020811015610cbf57600080fd5b810190808051906020019092919050505050826000808673ffffffffffffffffffffffffffffffffffffffff1673ffffffffffffffffffffffffffffffffffffffff1681526020019081526020016000206000019080519060200190610d26929190611141565b50816000808673ffffffffffffffffffffffffffffffffffffffff1673ffffffffffffffffffffffffffffffffffffffff1681526020019081526020016000206001019080519060200190610d7c929190611141565b50806000808673ffffffffffffffffffffffffffffffffffffffff1673ffffffffffffffffffffffffffffffffffffffff1681526020019081526020016000206002019080519060200190610dd2929190611141565b5060016000808673ffffffffffffffffffffffffffffffffffffffff1673ffffffffffffffffffffffffffffffffffffffff16815260200190815260200160002060040160008282540192505081905550600180600181548110610e3257fe5b906000526020600020016000828254039250508190555050505050565b600360009054906101000a900473ffffffffffffffffffffffffffffffffffffffff1673ffffffffffffffffffffffffffffffffffffffff1663beabacc885600260009054906101000a900473ffffffffffffffffffffffffffffffffffffffff16601e6040518463ffffffff1660e01b8152600401808473ffffffffffffffffffffffffffffffffffffffff1673ffffffffffffffffffffffffffffffffffffffff1681526020018373ffffffffffffffffffffffffffffffffffffffff1673ffffffffffffffffffffffffffffffffffffffff1681526020018281526020019350505050602060405180830381600087803b158015610f4f57600080fd5b505af1158015610f63573d6000803e3d6000fd5b505050506040513d6020811015610f7957600080fd5b810190808051906020019092919050505050826000808673ffffffffffffffffffffffffffffffffffffffff1673ffffffffffffffffffffffffffffffffffffffff1681526020019081526020016000206000019080519060200190610fe0929190611141565b50816000808673ffffffffffffffffffffffffffffffffffffffff1673ffffffffffffffffffffffffffffffffffffffff1681526020019081526020016000206001019080519060200190611036929190611141565b50806000808673ffffffffffffffffffffffffffffffffffffffff1673ffffffffffffffffffffffffffffffffffffffff168152602001908152602001600020600201908051906020019061108c929190611141565b5060016000808673ffffffffffffffffffffffffffffffffffffffff1673ffffffffffffffffffffffffffffffffffffffff168152602001908152602001600020600301600082825401925050819055506001806000815481106110ec57fe5b906000526020600020016000828254039250508190555050505050565b806001808154811061111757fe5b9060005260206000200154016001808154811061113057fe5b906000526020600020018190555050565b828054600181600116156101000203166002900490600052602060002090601f016020900481019282601f1061118257805160ff19168380011785556111b0565b828001600101855582156111b0579182015b828111156111af578251825591602001919060010190611194565b5b5090506111bd91906111c1565b5090565b6111e391905b808211156111df5760008160009055506001016111c7565b5090565b9056fea265627a7a723158207daf226c90805fddb0bb560265d435f7e89af3888735e4697bce19eed97dd3a664736f6c63430005100032",
  "source": "pragma solidity >=0.5.0;\r\nimport \"./Token.sol\";\r\n\r\ncontract Shop {\r\n\r\n    struct user {\r\n        string fullname;\r\n        string tel;\r\n        string location;\r\n        uint durian;         \r\n        uint coconut;\r\n        uint pomelo;         \r\n    } \r\n    \r\n\r\n    mapping (address => user) userMap;\r\n    uint[] stock = [100,200,300]; // เก็บว่ามีผลไม้ในสต๊อกเท่าไร\r\n    address owner = 0xA832D93032aFD5aFC25638767C636cB35B3fBc9d;\r\n    Token token;\r\n    \r\n    constructor (address _tokenAddress) public {\r\n        token = Token(_tokenAddress);\r\n    }\r\n\r\n    function buyDurian(address _wallet,string memory _fullname,string memory _tel,string memory _location) public {\r\n        token.transfer(_wallet,owner , 30);\r\n        userMap[_wallet].fullname = _fullname;\r\n        userMap[_wallet].tel = _tel;\r\n        userMap[_wallet].location = _location;\r\n        userMap[_wallet].durian += 1;\r\n        stock[0] -= 1;\r\n    }\r\n\r\n    function buyCoconut(address _wallet,string memory _fullname,string memory _tel,string memory _location) public {\r\n        token.transfer(_wallet,owner , 2);\r\n        userMap[_wallet].fullname = _fullname;\r\n        userMap[_wallet].tel = _tel;\r\n        userMap[_wallet].location = _location;\r\n        userMap[_wallet].coconut += 1;\r\n        stock[1] -= 1;\r\n    }\r\n\r\n    function buypomelo(address _wallet,string memory _fullname,string memory _tel,string memory _location) public {\r\n        token.transfer(_wallet,owner , 2);\r\n        userMap[_wallet].fullname = _fullname;\r\n        userMap[_wallet].tel = _tel;\r\n        userMap[_wallet].location = _location;\r\n        userMap[_wallet].pomelo += 1;\r\n        stock[2] -= 1;\r\n    }\r\n\r\n    function getdurianstock() public view returns (uint){            \r\n        uint durianstock = stock[0];\r\n        return (durianstock);                                                              \r\n    }\r\n\r\n    function getcoconutstock() public view returns (uint){            \r\n        uint coconutstock = stock[1];\r\n        return (coconutstock);                                                              \r\n    }\r\n\r\n    function getpomelostock() public view returns (uint){            \r\n        uint pomelostock = stock[2];\r\n        return (pomelostock);                                                              \r\n    }\r\n\r\n    function adddurianstock (uint newdstock) public  {\r\n        stock[0] = stock[0] + newdstock;\r\n    }\r\n\r\n    function addcoconutstock (uint newdstock) public  {\r\n        stock[1] = stock[1] + newdstock;\r\n    }\r\n\r\n    function addpomelostock (uint newdstock) public  {\r\n        stock[2] = stock[2] + newdstock;\r\n    }\r\n    \r\n    function getAddress() public view returns (address){\r\n        address useraddress = msg.sender;\r\n        return (useraddress);   \r\n    }\r\n\r\n\r\n}",
  "sourcePath": "C:/Users/chira/Downloads/IS_GAP/contracts/Shop.sol",
  "compiler": {
    "name": "solc",
    "version": "0.5.16+commit.9c3226ce.Emscripten.clang"
  },
  "schemaVersion": "3.4.1",
  "updatedAt": "2021-07-13T08:00:35.595Z",
  "networkType": "ethereum",
  "devdoc": {
    "methods": {}
  },
  "userdoc": {
    "methods": {}
  }
}