{
  "contractName": "Token",
  "abi": [
    {
      "inputs": [
        {
          "internalType": "uint256",
          "name": "initialSupply",
          "type": "uint256"
        }
      ],
      "payable": false,
      "stateMutability": "nonpayable",
      "type": "constructor"
    },
    {
      "constant": true,
      "inputs": [
        {
          "internalType": "address",
          "name": "",
          "type": "address"
        }
      ],
      "name": "balanceOf",
      "outputs": [
        {
          "internalType": "uint256",
          "name": "",
          "type": "uint256"
        }
      ],
      "payable": false,
      "stateMutability": "view",
      "type": "function"
    },
    {
      "constant": false,
      "inputs": [
        {
          "internalType": "address",
          "name": "_from",
          "type": "address"
        },
        {
          "internalType": "address",
          "name": "_to",
          "type": "address"
        },
        {
          "internalType": "uint256",
          "name": "_value",
          "type": "uint256"
        }
      ],
      "name": "transfer",
      "outputs": [
        {
          "internalType": "bool",
          "name": "success",
          "type": "bool"
        }
      ],
      "payable": false,
      "stateMutability": "nonpayable",
      "type": "function"
    }
  ],
  "bytecode": "0x608060405234801561001057600080fd5b506040516103783803806103788339818101604052602081101561003357600080fd5b8101908080519060200190929190505050806000803373ffffffffffffffffffffffffffffffffffffffff1673ffffffffffffffffffffffffffffffffffffffff16815260200190815260200160002081905550506102e1806100976000396000f3fe608060405234801561001057600080fd5b50600436106100365760003560e01c806370a082311461003b578063beabacc814610093575b600080fd5b61007d6004803603602081101561005157600080fd5b81019080803573ffffffffffffffffffffffffffffffffffffffff169060200190929190505050610119565b6040518082815260200191505060405180910390f35b6100ff600480360360608110156100a957600080fd5b81019080803573ffffffffffffffffffffffffffffffffffffffff169060200190929190803573ffffffffffffffffffffffffffffffffffffffff16906020019092919080359060200190929190505050610131565b604051808215151515815260200191505060405180910390f35b60006020528060005260406000206000915090505481565b6000816000808673ffffffffffffffffffffffffffffffffffffffff1673ffffffffffffffffffffffffffffffffffffffff16815260200190815260200160002054101561017e57600080fd5b6000808473ffffffffffffffffffffffffffffffffffffffff1673ffffffffffffffffffffffffffffffffffffffff16815260200190815260200160002054826000808673ffffffffffffffffffffffffffffffffffffffff1673ffffffffffffffffffffffffffffffffffffffff1681526020019081526020016000205401101561020957600080fd5b816000808673ffffffffffffffffffffffffffffffffffffffff1673ffffffffffffffffffffffffffffffffffffffff16815260200190815260200160002060008282540392505081905550816000808573ffffffffffffffffffffffffffffffffffffffff1673ffffffffffffffffffffffffffffffffffffffff1681526020019081526020016000206000828254019250508190555060019050939250505056fea265627a7a72315820557fe905ee22b7e77fab91c1f9dac5010e7493fd6bf4179436fd811249ad7c8a64736f6c63430005100032",
  "source": "pragma solidity >=0.5.0;\r\n\r\ncontract Token {\r\n    mapping (address => uint256) public balanceOf;\r\n\r\n    constructor(uint256 initialSupply) public {\r\n        balanceOf[msg.sender] = initialSupply;\r\n    }\r\n\r\n    function transfer(address _from, address _to, uint256 _value) public returns (bool success) {\r\n        require(balanceOf[_from] >= _value);                // Check if the sender has enough\r\n        require(balanceOf[_to] + _value >= balanceOf[_to]); // Check for overflows\r\n        balanceOf[_from] -= _value;\r\n        balanceOf[_to] += _value;\r\n        return true;\r\n    }\r\n\r\n}",
  "sourcePath": "C:\\Users\\chira\\Downloads\\IS_GAP\\contracts\\Token.sol",
  "compiler": {
    "name": "solc",
    "version": "0.5.16+commit.9c3226ce.Emscripten.clang"
  },
  "schemaVersion": "3.4.1",
  "updatedAt": "2021-07-13T08:00:35.591Z",
  "networkType": "ethereum",
  "devdoc": {
    "methods": {}
  },
  "userdoc": {
    "methods": {}
  }
}